:020000040800F2
:10000000C0060020CD010008571B0008B10F0008F2
:10001000551B0008070400089D2900080000000087
:10002000000000000000000000000000891B000824
:100030000904000800000000591B0008591C0008B2
:10004000E7010008E7010008E7010008E7010008F0
:10005000E7010008E7010008E7010008E7010008E0
:10006000E7010008E7010008E7010008E7010008D0
:10007000E7010008E7010008E7010008E7010008C0
:10008000E7010008E7010008E7010008E7010008B0
:10009000E7010008E7010008E7010008E7010008A0
:1000A000E7010008E7010008E7010008E701000890
:1000B000E7010008E7010008E7010008E701000880
:1000C000E7010008E7010008E7010008E701000870
:1000D000E7010008E7010008E7010008E701000860
:1000E000E7010008E7010008E7010008E701000850
:1000F000E7010008E7010008E7010008E701000840
:10010000E7010008E7010008E7010008E70100082F
:10011000E7010008E7010008E7010008E70100081F
:10012000E7010008E7010008E7010008E70100080F
:1001300000F002F800F03AF80AA090E8000C8244BF
:100140008344AAF10107DA4501D100F02FF8AFF29C
:10015000090EBAE80F0013F0010F18BFFB1A43F0A5
:1001600001031847B84A0000D84A0000103A24BFDB
:1001700078C878C1FAD8520724BF30C830C144BF0C
:1001800004680C607047000000230024002500264E
:10019000103A28BF78C1FBD8520728BF30C148BFEA
:1001A0000B6070471FB51FBD10B510BD00F08AF879
:1001B0001146FFF7F7FF02F0D3FC00F0A8F803B4F4
:1001C000FFF7F2FF03BC00F0ABF8000009488047DE
:1001D00009480047FEE7FEE7FEE7FEE7FEE7FEE729
:1001E000FEE7FEE7FEE7FEE704480549054A064B41
:1001F00070470000BB1C000831010008C00000204F
:10020000C0060020C0020020C002002010B5431C20
:1002100002E010F8011B71B18107FAD14FF00132F1
:1002200002C88C1A8C4314EAC211F9D0C01A0A060B
:1002300003D0C01E10BDC01A10BD0A0401D0801E1C
:1002400010BD0902FCD0401E10BD4FF0000200B5E9
:10025000134694469646203922BFA0E80C50A0E8E9
:100260000C50B1F12001BFF4F7AF090728BFA0E897
:100270000C5048BF0CC05DF804EB890028BF40F863
:10028000042B08BF704748BF20F8022B11F0804FA5
:1002900018BF00F8012B704770477047704710B5C2
:1002A00000F008F8006810BD10B5044600F002F830
:1002B000046010BD0048704760000020004870478F
:1002C000600000207546FFF7F9FFAE46050069465D
:1002D000534620F00700854618B020B5FFF784FF8D
:1002E000BDE820404FF000064FF000074FF0000837
:1002F0004FF0000B21F00701AC46ACE8C009ACE8B8
:10030000C009ACE8C009ACE8C0098D46704710B51B
:100310000446AFF300802046BDE81040FFF74FBF12
:1003200001491820ABBEFEE726000200704700F02E
:1003300061BE2DE9F0410D460146002004464E19EC
:1003400008E00702301B401E80B200F007F8641C72
:100350003844E4B2AC42F4D3BDE8F08110B50446B1
:1003600000F0F4FE200AA02101EB4000C0B200F032
:10037000BDFE00F02DFFE0B200F0B8FE00F028FF57
:1003800000F0E4FEA12000F0B1FE00F021FF00200B
:1003900000F076FE044600F0F9FE204610BD2DE97F
:1003A000F04116460D460746002409E0E00025FA14
:1003B00000F0C1B2381980B200F006F8641CE4B253
:1003C000B442F3D3BDE8F08170B50D46044600F0A9
:1003D000BDFE200AA02101EB4000C0B200F086FE65
:1003E00000F0F6FEE0B200F081FE00F0F1FE2846DB
:1003F00000F07CFE00F0ECFE00F0C8FEBDE87040AE
:100400000A2002F043BBFEE7704700002DE9FE43DF
:1004100080464FF6FF75284600F070FF164C1F26E9
:100420000096002122881423084600F0EFFF009672
:1004300063882288A3F1140081B2002000F0E6FF57
:100440000E48012610270580CDF80080CDE9017601
:100450001F232A460221002000F08CF908A0CDE9D4
:100460000007029660881F23123881B22A460020B6
:1004700000F080F9BDE8FE8350000020100000204D
:10048000687474703A2F2F7777772E6C636477696E
:100490006B692E636F6D00002DE9FF4F83B004463A
:1004A0003E20CDE90040DDF844B000274FF0800940
:1004B0003148109A07EB071110F811301278934267
:1004C00040D100EB410A10989AF80110407881421F
:1004D00038D1049804990F3083B204F10F0082B22E
:1004E000204601F0D9F8002600250AEB060800BFD7
:1004F000BBF1000F13D021490598088098F802102D
:1005000029FA05F0014203D02046049900F072FF59
:10051000641C0098A4B2201A102826D00AE098F88B
:10052000021029FA05F0014201D0059800E0069872
:1005300001F068FA6D1CEDB2082DD9D3761CF6B225
:10054000202ED1D37F1C0198BFB28742B0D30C4874
:100550004188008807B0491EBDE8F04F401E8BB2AD
:1005600082B20021084601F097B80498009C401C14
:1005700080B20490E2E70000D03F000810000020A5
:10058000500000202DE9FF4F83B004460720CDE93D
:100590000040DDF844B000274FF0800907EB8700EA
:1005A00000EB47113048109A10F81130127893423E
:1005B00040D100EB410A10989AF80110407881422E
:1005C00038D104980499173083B204F1170082B22D
:1005D000204601F061F8002600250AEB060800BF5E
:1005E000BBF1000F13D021490598088098F802103C
:1005F00029FA05F0014203D02046049900F0FAFEE2
:10060000641C0098A4B2201A182826D00AE098F892
:10061000021029FA05F0014201D0059800E0069881
:1006200001F0F0F96D1CEDB2082DD9D3761CF6B2AD
:10063000482ED1D37F1C0198BFB28742AED30C485D
:100640004188008807B0491EBDE8F04F401E8BB2BC
:1006500082B20021084601F01FB80498009C401C9B
:1006600080B20490E2E700000C480008100000206F
:10067000500000202DE9FF4F83B004460420CDE94F
:100680000040DDF844B000274FF080093148109A4F
:1006900007EB871110F811301278934240D100EB2C
:1006A000410A10989AF801104078814238D1049894
:1006B00004991F3083B204F11F0082B2204600F07B
:1006C000EBFF002600250AEB060800BFBBF1000F78
:1006D00013D021490598088098F8021029FA05F0EE
:1006E000014203D02046049900F084FE641C009867
:1006F000A4B2201A202826D00AE098F8021029FA7D
:1007000005F0014201D0059800E0069801F07AF961
:100710006D1CEDB2082DD9D3761CF6B2802ED1D344
:100720007F1C0198BFB28742B0D30C484188008833
:1007300007B0491EBDE8F04F401E8BB282B20021C7
:10074000084600F0A9BF0498009C401C80B20490A9
:10075000E2E70000124A00081000002050000020CC
:1007600010B5144600F094FF2046BDE8104001F09B
:1007700049B900002DE9FE431F46DDE90A469046CF
:10078000894620460C9DFFF741FD0A4980B2404250
:100790000988CDE9004601EBC00000EBD070C0F342
:1007A0004F003B4642464946029501F0EFF9BDE84D
:1007B000FE830000500000202DE9F84FDFF8C891BB
:1007C0000024A9F1040B23460F2709F1040AABF119
:1007D000040ED1E00125A54006EA0502AA4276D121
:1007E000DFF8A8C14E68A6EB0C0866452BD00DDCDF
:1007F000032E34D005DC36B3012E19D0022E2FD1B2
:100800001BE0112E16D0122E2AD119E0B8F5881F40
:1008100019D006DCB8F5803F15D0B8F5801F1FD180
:1008200011E0B8F5001F0ED0B8F5041F18D10AE08A
:10083000CB6815E0CB681B1D12E0CB6808330FE0D6
:10084000CB680C330CE08B682BB1012B4FF0080305
:1008500003D0456104E0042302E0056100E00023C9
:10086000FF2A01D8064601E000F104064FEA84059C
:1008700001D9A5F12005D6F8008007FA05FC28EA81
:100880000C0803FA05F548EA0508C6F800804D682B
:10089000ED0070D53E4DAE6946F00106AE61AD6922
:1008A00024F0030605F0010500953A4D06EB050C12
:1008B000DCF80850A607360F07FA06F825EA0805FF
:1008C000DFF8D480404503D14FF0000825E052E026
:1008D000DFF8C880404502D14FF001081DE0DFF885
:1008E000C080404502D14FF0020816E0DFF8B48026
:1008F000404502D14FF003080FE0DFF8AC804045DF
:1009000002D14FF0040808E0DFF8A080404502D192
:100910004FF0050801E04FF0060808FA06F848EA2B
:100920000508CCF808804D68D9F80060ED024D4606
:1009300001D5164300E096432E604D68DAF800605A
:10094000AD02554601D5164300E096432E604D6832
:10095000DBF80060AD035D4601D5164300E0964329
:100960002E604D68DEF80060ED03754601D5164334
:1009700000E096432E60641C0A681646E2407FF44D
:1009800029AFBDE8F88F00000804014000001110F5
:10099000001002400000014000080140000C01402E
:1009A000001001400014014000180140001C0140EB
:1009B0008068084000D0012070470AB1016170478B
:1009C0000904FBE701488068704700000000002030
:1009D000024881680278114481607047000000205D
:1009E000074810B5016841F010010160032000F0D4
:1009F00067F80F2000F006F800F024F8002010BD82
:100A00000020024070B50D4D04464FF47A712878ED
:100A1000B1FBF0F00A490968B1FBF0F000F0B4FA5C
:100A200048B9102C07D200222146501E00F028F8A9
:100A300000206C6070BD012070BD0000000000202F
:100A40000C0000200C4808B5816941F0010181616A
:100A5000816901F001010091C16941F08051C161DA
:100A6000C06900F0805000900448416821F0E061C6
:100A700041F00071416008BD0010024000000140DB
:100A8000F0B40E4B1B680C46C3F30223C3F10705F9
:100A9000042D00D90425191D072901D2002300E0E7
:100AA000DB1E012606FA05F1491E214099409E40B1
:100AB000761E16403143F0BC01F071BF0CED00E032
:100AC000064900F0070208684FF6FF03184040EAA5
:100AD0000220034A10430860704700000CED00E05C
:100AE0000000FA052DE9F0470F46050061D0434E9E
:100AF000306800F00700B84209D2306820F00700E3
:100B000038433060306800F00700B84251D128689F
:100B10003B4C810712D5400703D5606840F4E06084
:100B200060602878000703D5606840F4605060601A
:100B30006068A96820F0F000084360602878C0076A
:100B400028D06868012810D02168022810D08907B1
:100B500000292EDA616821F0030101436160FFF78B
:100B600031FF804641F288390DE021688903EFE7C3
:100B70008901EDE7FFF726FFA0EB0801494502D9FF
:100B80000320BDE8F0876068696800F00C00B0EBF6
:100B9000810FEFD1306800F00700B8420BD9306800
:100BA00020F0070038433060306800F00700B8429A
:100BB00001D00120E5E72878400705D56068E9689D
:100BC00020F4E060084360602878000706D560687C
:100BD000296920F4605040EAC100606000F01EF80E
:100BE0006168084AC1F30311515CC84006490860B6
:100BF00006480068FFF706FF0020C2E70020024019
:100C0000001002405C3500080C00002004000020A9
:100C100001480068704700000C0000200E4A51682F
:100C20000E4801F00C03042B11D0082B0FD10C48F7
:100C3000C1F38343C903C05C0AD55168084AC1F3B4
:100C40004041921E515C054A5043B0FBF1F07047A1
:100C500004494843704700000010024000127A0027
:100C60004C35000800093D002DE9F84F040070D014
:100C70002078C04DC00749D06868C0F381000128C2
:100C800007D06868C0F38100022809D16868C003F2
:100C900006D52868800339D560680028E7D035E09C
:100CA0006068B0F5803F0BD010B1B0F5A02F11D027
:100CB000286820F480302860286820F4802002E032
:100CC000286840F480302860606890B1FFF77AFEB1
:100CD00006460AE0286840F480202860F0E700BF5C
:100CE000FFF770FE801B642873D828688003F7D54F
:100CF0000CE0FFF767FE064605E000BFFFF762FE67
:100D0000801B6428F0D828688003F7D420789A4E96
:100D100080074FF001094FF0000839D5686810F0DE
:100D20000C0F07D06868C0F38100022809D16868F9
:100D3000C00306D42868800714D52069012808D18B
:100D400010E02069B0B1C6F80090FFF73BFE0746FF
:100D500005E00AE1FFF736FEC01B0228C4D8286868
:100D60008007F7D52868616920F0F80040EAC100E3
:100D700028600DE0C6F80080FFF724FE074604E077
:100D8000FFF720FEC01B022823D828688007F7D46D
:100D9000207800072CD57948A169D9B1C0F8009016
:100DA000FFF710FE074604E0FFF70CFEC01B022809
:100DB0000FD8686A8007F7D571484FF4FA51006878
:100DC000B0FBF1F0009000BF0098411E0091FAD2F4
:100DD0000EE080E0C0F80080FFF7F4FD074604E075
:100DE000FFF7F0FDC01B022875D8686A8007F7D4AA
:100DF0002078400760D5E8690027C00008D4E8697A
:100E000040F08050E861E869012700F080500090D0
:100E10005C480168C90513D40168834641F48071B8
:100E20000160FFF7CFFD824606E000BFFFF7CAFD75
:100E3000A0EB0A0064284ED8DBF80000C005F5D509
:100E4000E06801280AD008B1052813D0286A20F0EC
:100E500001002862286A20F0040002E0286A40F0BD
:100E600001002862E06841F2883B98B1FFF7AAFDD3
:100E700082460BE0286A40F004002862EEE700BFDB
:100E8000FFF7A0FDA0EB0A0159455AD8286A800750
:100E9000F6D50CE0FFF796FD824605E0FFF792FDE0
:100EA000A0EB0A0159454CD8286A8007F6D41FB137
:100EB000E86920F08050E861E06988B36968C1F3AF
:100EC0008101022944D00228C6F8608004D0FFF7CF
:100ED00079FD044638E034E0FFF774FD074604E08E
:100EE000FFF770FDC01B02282BD828688001F7D4BB
:100EF000206AB0F5803F05D16868A16820F4003011
:100F000008436860D4E908010843696821F4741152
:100F100008436860C6F86090FFF754FD044606E099
:100F200025E000BFFFF74EFD001B022809D8286806
:100F30008001F7D51BE000BFFFF744FD001B02282E
:100F400002D90320BDE8F88F28688001F4D40EE0B0
:100F50000128F7D06868226A00F48031914204D1F8
:100F6000616A00F47010884201D00120EAE7002095
:100F7000E8E70000001002400000424280044242C4
:100F80000C0000200070004010B5401EB0F1807FC2
:100F900001D3012010BD4FF0E02460610F216017E4
:100FA00001F0FDFC0020A06107202061002010BDA1
:100FB000FEE7000070B50D4C0025C4F8B0510C4898
:100FC000416821F470414160416841F44051416001
:100FD000C4F8AC51022004F5D67401F06BFD012079
:100FE0006060022001F066FD656070BD0000224275
:100FF0000010014010B586B0002002900D488169B4
:1010000041F0100181618069012400F0100004901A
:101010004FF4C050CDE90004032003906946064810
:10102000FFF7CAFB0548C0F8B041C0F8AC4106B0B4
:1010300010BD0000001002400010014000002242DC
:1010400070B50D4C0025C4F8B0510C48416821F42E
:1010500070414160416841F4405141600126C4F84B
:10106000AC61022004F5D67401F024FD6660022014
:1010700001F020FD656070BD0000224200100140BB
:101080002DE9F047814617480024416821F470415A
:101090004160416841F400414160134E25462746B6
:1010A0004FF00108C6F8B071022001F003FDC6F848
:1010B000B0816006040ED6F82C0108B1641CE4B2BD
:1010C000012001F0F7FC6D1CEDB2082DEAD3B9F157
:1010D000000F04D0FFF76EFF2046BDE8F087FFF752
:1010E000AFFFF9E700100140000022422DE9F04176
:1010F00006461448416821F470414160416841F45A
:1011000040514160104C0027C4F8B0713D464FF08B
:101110000108F009C4F8AC017006060E022001F0C7
:10112000C9FCC4F8B081022001F0C4FCC4F8B0715D
:10113000022001F0BFFC6D1CEDB2082DE9D3BDE823
:10114000F0810000001001400000224270B50D48FF
:10115000416821F470414160416841F4405141606F
:10116000094C0120C4F8AC01C4F8B001042004F516
:10117000D67401F09FFC00252560042001F09AFC44
:10118000656070BD00100140000022420E4810B59D
:10119000416821F470414160416841F4405141602F
:1011A0000A4C0020C4F8B001C4F8AC01042004F5D6
:1011B000D67401F07FFC012060602060BDE8104023
:1011C000042001F077BC0000001001400000224222
:1011D00070B513480024416821F4704141604168B2
:1011E00041F4004141600F4D0126C5F8AC61304625
:1011F00001F060FCC5F8B061012001F05BFC07E084
:10120000641CE4B2FA2C03D9FFF7C0FF012070BDC3
:10121000D5F82C010028F3D1C5F8B00170BD00004D
:10122000001001400000224230B585B0002001903E
:1012300003901548816941F004018161816901F0E1
:1012400004010491816941F01001816180690F4DB1
:1012500000F0100004904FF4004001240090694613
:1012600002942846FFF7A8FA202000906946084813
:10127000FFF7A2FA02200290694600942846FFF781
:101280009BFA05B030BD000000100240000801408C
:101290000010014070B5174D20212846FFF788FB4C
:1012A000154C4FF4004650B131462046FFF780FB05
:1012B00028B101212046FFF77BFB012812D10A202B
:1012C00001F0E4FB20212846FFF772FB60B13146B4
:1012D0002046FFF76DFB48B101212046FFF768FB70
:1012E000012805D0002070BD012070BD022070BD16
:1012F000032070BD00100140000801402DE9F047B7
:10130000134C814600216088401E83B22088401E15
:1013100082B2084600F0C0F90E484FF4006707603B
:10132000A0F104080115C8F80010002609E0002506
:1013300003E0484600F066FB6D1C2088A842F8D800
:10134000761C6088B042F2D8C8F80070BDE8F0871B
:1013500050000020140C01402DE9FE4F161ACDE973
:1013600000104FF000085D1A47464FF0FF30002E86
:1013700002DD4FF0010102E003D14FF000018B4686
:1013800002E08346C6F10006002D02DD4FF00100A9
:1013900002E003D14FF00000824602E08246C5F130
:1013A0000005AE4201DD344600E02C46601C4FF0E3
:1013B0000009029018E0009881B2019880B200F014
:1013C00019F8B0442F44A04504DD0198A8EB0408A7
:1013D00058440190A74203DD00983F1B5044009001
:1013E00009F101001FFA80F902998945E3DDBDE8A2
:1013F000FE8F000010B500F04BF903480088BDE8EF
:10140000104000F0FFBA0000100000202DE9F0416C
:10141000141A641CA6B25C1A641CA7B2DDF818800A
:1014200000F03AF900250AE0002404E0404600F00C
:10143000E9FA641CA4B2B442F8D36D1CADB2BD424B
:10144000F2D3064841880088491EBDE8F041401E9D
:101450008BB282B20021084600F01EB95000002075
:1014600070B586B00F4800240294816941F00801EC
:1014700081618069012500F0080004904FF43E402E
:10148000CDE900050320084E039069463046FFF77A
:1014900093F9A8038DE8310069463046FFF78CF9CF
:1014A00006B070BD00100240000C014010B5FFF7FF
:1014B000D7FF00F0DBF8F72000F022FAA92000F0B7
:1014C0000FFA512000F00CFA2C2000F009FA8220CB
:1014D00000F006FAC02000F013FA112000F000FA24
:1014E000092000F0FDF9C12000F00AFA412000F0C7
:1014F000F7F9C52000F004FA002000F0F1F90A2005
:1015000000F0EEF9802000F0EBF9B12000F0F8F9DE
:10151000B02000F0E5F9112000F0E2F9B42000F06D
:10152000EFF9022000F0DCF9B62000F0E9F9022022
:1015300000F0D6F9422000F0D3F9B72000F0E0F92E
:10154000C62000F0CDF9BE2000F0DAF9002000F04E
:10155000C7F9042000F0C4F9E92000F0D1F9002017
:1015600000F0BEF9362000F0CBF9682000F0B8F9A1
:101570003A2000F0C5F9662000F0B2F9E02000F052
:10158000BFF9002000F0ACF9072000F0A9F9102005
:1015900000F0A6F9092000F0A3F9172000F0A0F947
:1015A0000B2000F09DF9412000F09AF9892000F00D
:1015B00097F94B2000F094F90A2000F091F90C20E3
:1015C00000F08EF90E2000F08BF9182000F088F959
:1015D0001B2000F085F90F2000F082F9E12000F0D7
:1015E0008FF9002000F07CF9172000F079F91A201B
:1015F00000F076F9042000F073F90E2000F070F985
:10160000062000F06DF92F2000F06AF9452000F067
:1016100067F9432000F064F9022000F061F90A2024
:1016200000F05EF9092000F05BF9322000F058F973
:10163000362000F055F90F2000F052F9112000F08B
:101640005FF9782001F022FA292000F059F90020F2
:1016500000F076F904490120C1F8A401BDE810406A
:101660004FF6FF70FFF74ABE0080214210B50748D1
:101670004FF480540460642001F008FA0348001F0E
:101680000460BDE81040322001F000BA140C0140A3
:101690000B460246AFF300802DE9F041DFF85080A1
:1016A00007461C4615460E4698F80A0000F028F931
:1016B000380A00F015F9F8B200F012F9280A00F023
:1016C0000FF9E8B200F00CF998F80C0000F018F9E6
:1016D000300A00F005F9F0B200F002F9200A00F03B
:1016E000FFF8E0B200F0FCF8BDE8F04100F018B9F6
:1016F000500000202DE9FF4F81B08A460EA9DFF887
:10170000EC9091E83100203800F0FF080AEB04006B
:10171000401E83B20198B9F800B000EB5400401E9F
:1017200082B251460198FFF7B7FF002D4FF0000538
:1017300049D12F4808EB480100EB810A00F27440C0
:1017400000EB081817E00C2C03D018F805700026E1
:101750000CE01AF80570FAE7F80701D0039800E0EA
:10176000049800F04FF97F08761CF6B2B6EB540FE0
:10177000F2D36D1CEDB2A542E5D326E00C2C08D0C7
:101780001C4901EB08100026475D0AEB050000909C
:1017900014E0174808EB480100EB8100F3E70398D9
:1017A000A9F80000F80706D0009881B201983044EB
:1017B00080B2FFF71FFE7F08761CF6B2B6EB540F1F
:1017C000EDD36D1CEDB2A542D8D30B48A9F800B0FB
:1017D0004188008805B0491EBDE8F04F401E8BB21D
:1017E00082B200210846FFF757BF0000100000201A
:1017F0006C350008E0390008500000202DE9FF4F4B
:1018000083B00026DDF840801D463446B2464FEADC
:101810005807DFF86490DFF864B028E0281B401E0A
:10182000C1B20A2001F0ABF90599B1FBF0F00A2131
:10183000B0FBF1F201FB120026B9691E8C4201DAFD
:1018400028B101263030C0B28DE8010502E0202227
:101850008DE804050398B9F8003007FB040080B256
:10186000BBF800200499FFF745FF641CE4B2AC42CA
:10187000D4D307B0BDE8F08F120000201000002084
:101880002DE9FE4F1C4691468A460546114E124FE1
:10189000DFF84880DDF830B014E03188491EA942F5
:1018A00015DB7188491E514511DB8DE8010A3B8823
:1018B000B8F8002051462846FFF71CFF05EB5900F9
:1018C00085B2641C2078A0F120015E29E5D9BDE82D
:1018D000FE8F0000500000201200002010000020A9
:1018E00070B506494FF400640C60044D09152D1FB6
:1018F000296000F033F92C6070BD0000140C014029
:1019000010B506494FF400640C600A150A6000F037
:1019100025F90248001F046010BD0000140C0140AE
:101920000148007AFFF7ECBF5000002010B50C46CC
:10193000FFF7E6FFE0B2BDE81040FFF7D1BF0000BF
:1019400012492A224FF4F0734A812B228A812C22D9
:101950000A814FF4A07258B101280DD002280FD08F
:10196000032811D10B804A80A8213620FFF7DEBF63
:101970000A804B800821F8E70B804A806821F4E751
:101980000A804B80C821F0E770470000500000201B
:1019900070B586B0184C00200290A06940F0040099
:1019A000A061A069A51500F0040004900120CDE914
:1019B00000500320114E039069463046FEF7FCFEAE
:1019C000012229463046FEF7F8FFA06940F02000CA
:1019D000A061A0690A4C00F020000490042000904F
:1019E00069462046FEF7E8FE012204212046FEF764
:1019F000E4FF06B070BD0000001002400008014086
:101A00000014014010B50446F82000EA1420FFF746
:101A100067FFFC2000EAD400FFF762FFE006BDE8A4
:101A20001040000EFFF75CBF2DE9F04786B00024A0
:101A300044480094019402940394816941F0100198
:101A40008161816901F010010491816941F02001F7
:101A50008161816901F020010491816941F00801EF
:101A60008161816901F008010491816941F00401FB
:101A700081618069DFF8D08000F0040042F2010546
:101A80000490002229464046FEF797FF01220821D4
:101A90004046FEF792FFDFF8B49000224FF4244155
:101AA0004846FEF78AFF01224FF4D0514846FEF720
:101AB00084FFDFF89CA0012204215046FEF77DFF41
:101AC0000095022601250396CDE90154694640465A
:101AD000FEF772FE40F204408DE831006946404650
:101AE000FEF76AFE08200327CDE90005CDE902478D
:101AF00069464046FEF760FE7802CDE90005CDE973
:101B0000024669464846FEF757FE4FF43840CDE995
:101B10000005CDE9024769464846FEF74DFEA80399
:101B20008DE8310069464846FEF746FE0420CDE9BF
:101B30000005CDE9024669465046FEF73DFE06B077
:101B4000BDE8F0870010024000100140000C014089
:101B500000140140FEE7FEE77047000070B5094B36
:101B600008210C031D1D8A02060601D51C6000E039
:101B70002C602A601A604006000E491E11F0FF0119
:101B8000F2D170BD100C0140704700002DE9FF4FED
:101B900083B0884610A9044691E8600481462878FD
:101BA0002C4F9B46002852D03888A0EB5601A1420A
:101BB0004DDB79888A1B424549DB2978802915D974
:101BC000801BA04243DB424541DB202E33D0CDE9D0
:101BD000005A059A182E5B464146204634D0FEF73F
:101BE0005BFCA01984B215F8020FDBE70D290DD0BC
:101BF000102E12D910228DE806045B46414620467D
:101C0000059AFFF777FD0834A4B211E008EB06004F
:101C10001FFA80F84C466D1C0AE08DE842045B46D2
:101C200041462046059AFFF765FD04EB560084B255
:101C300015F8010FB6E7CDE9005A5B46414620464C
:101C4000059AFEF717FDCCE7FEF79CFCC9E707B045
:101C5000BDE8F08F50000020FEF7BABE30B58FB05F
:101C600028216846FEF7F1FA14210AA8FEF7EDFADA
:101C700001210804CDE900100024029402250491FA
:101C8000CDE907504FF4E01009906846FEF7ECFFED
:101C900008B172B6FEE70F20CDE90A054FF4806067
:101CA000CDE90C4002210AA80E94FEF71BFF002884
:101CB00001D072B6FEE70FB030BD70472DE9FF4F7F
:101CC00081B00D46DDE91087464906464FF478405D
:101CD000DDF838B0DDF8489008809246012442A330
:101CE0001022A02128200094FFF7CAFD3FA3102254
:101CF000A02178200094FFF7C3FD3DA31022B4215A
:101D000028200094FFF7BCFD3AA31022B4217820CC
:101D10000094FFF7B5FD38A31022C82128200094B5
:101D2000FFF7AEFD35A31022C82178200094FFF7FD
:101D3000A7FD33A31022DC2128200094FFF7A0FD8B
:101D400030A31022DC2178200094FFF799FD2EA308
:101D50001022F02128200094FFF792FD1024042384
:101D60003246A02140200094FFF748FD04232A4674
:101D7000A02190200094FFF741FD04235246B42196
:101D800040200094FFF73AFD04230094B4219020F2
:101D9000049AFFF733FD04235A46C82140200094DB
:101DA000FFF72CFD00940423C82190200F9AFFF721
:101DB00025FD04234246DC2140200094FFF71EFD50
:101DC00004233A46DC2190200094FFF717FD1048C9
:101DD0000094032301884A466020FFF70FFD05B0F9
:101DE000BDE8F08F1000002078313A0079313A00D8
:101DF00078323A0079323A0078333A0079333A004F
:101E000078343A0079343A006661632069733A00A5
:101E1000500000202DE9F04FDFF8ECB38FB01F2009
:101E2000ABF80000F9484FF6FF7900254E46A0F8C0
:101E300000902F465C463046FFF760FA4FF4784A30
:101E4000A4F800A03046FFF759FAA846A4F800808D
:101E50000126EFA3102228210A200096FFF710FD8B
:101E6000F3A3102238210A200096FFF709FDF9A3F9
:101E7000102248210A200096FFF702FDFDA3102240
:101E800058210A200096FFF7FBFC14215246084611
:101E900000F084FAFE4C84F81480C4F818804FF4E3
:101EA0007A78616801208847207DB6EB901F44D185
:101EB00020F04000207509A8218A20F8251000EBA9
:101EC00085006D1C0027618AEDB24180012D06D08E
:101ED000022D10D0032D1DD0042D2ED139E0142158
:101EE0004A46084600F05AFAEA4852460088143832
:101EF00080B214211FE0E7484A46142100881438B4
:101F000080B200F04BFAE34852464088143881B260
:101F1000142010E0DF484A464088143881B214206B
:101F200000F03CFADB4852464088143881B2D94868
:101F30000088143880B200F031FA0A2000F0A6FDC3
:101F40007F1CBFB24745ACD900F066FA0FB0BDE8C0
:101F5000F08FBDF82400BDF82810401A00D540428B
:101F6000BDF82610BDF82A20891A00D54942404301
:101F700001FB010000F05FFE00F009FE00F02EFE04
:101F800080B20390BDF82C00BDF83010401A00D587
:101F90004042BDF82E10BDF83220891A00D54942C2
:101FA000404301FB010000F046FE00F0F0FD00F0B0
:101FB00015FE80B2029001F003F90546039801F086
:101FC000FFF8294600F0E6FFB3490090884249DD5A
:101FD000B249884246DC0398F0B30298E0B3BDF8FA
:101FE0002400BDF82C10411A00D54942BDF8260046
:101FF000BDF82E20801A00D5404249434043084492
:1020000000F019FE00F0C3FD00F0E8FD80B203907F
:10201000BDF82800BDF83010401A00D54042BDF888
:102020002A10BDF83220891A00D54942404301FBED
:10203000010000F000FE00F0AAFD00F0CFFD80B22C
:1020400001F0BEF80546039801F0BAF8294600F001
:10205000A1FF9149009000E004E0884202DD8F4931
:1020600088422EDD8B4800254A4641880088143975
:10207000143889B280B200F091F914215246084612
:1020800000F08CF98649009801F0AEF801F060F894
:1020900080B2BDF83210BDF83030BDF82E20CDE949
:1020A0000310CDE90123BDF82C000090BDF82A30C3
:1020B000BDF82820BDF82610BDF82400FFF7FEFD6E
:1020C000EFE6BDF82800BDF82C10401A00D54042BC
:1020D000BDF82A10BDF82E20891A00D54942404388
:1020E00001FB010000F0A7FD00F051FD00F076FDBE
:1020F00080B20390BDF82400BDF83010401A00D51E
:102100004042BDF82610BDF83220891A00D5494258
:10211000404301FB010000F08EFD00F038FD00F0AF
:102120005DFD80B201F04CF80546039801F048F8D7
:10213000294600F02FFF58490090884292DD574908
:1021400088428FDCBDF82810BDF82400049002916D
:10215000081A01F01DF805464E48008803900090CB
:10216000283801F015F8294600F014FFA06101900D
:1021700002990498084401F023F8019901F034F819
:102180000546009801F01CF8294601F0F9F84FF0D7
:10219000FF3101F09CF900F0BFFF2084BDF82E1044
:1021A0000491BDF826000790081A00F0F1FF0546DB
:1021B0003848408802900690283800F0E9FF294608
:1021C00000F0E8FEE0610546059004990798084490
:1021D00000F0F6FF294601F007F80546069800F0E2
:1021E000EFFF294601F0CCF84FF0FF3101F06FF915
:1021F00000F092FF6084019800F08EFF002800DA62
:102200004042022856DC4DE0100000201200002061
:10221000506C656173652075736520746865207303
:1022200074796C757320636C69636B2074686500E6
:1022300063726F7373206F6E2074686520736372AE
:1022400065656E2E5468652063726F7373207769BD
:102250006C6C0000616C77617973206D6F7665201E
:10226000756E74696C207468652073637265656E41
:102270002000000061646A7573746D656E74206976
:102280007320636F6D706C657465642E00000000D0
:1022900018000020500000203333733F6666863FED
:1022A0000000C842059800F037FF002800DA4042DD
:1022B000022829DD02980025143881B203984A4685
:1022C000143880B200F06AF814215246084600F033
:1022D00065F819A310221A2128200096FFF7D0FADA
:1022E00094F8240040B1002084F8240030B117484D
:1022F00090210170D02105E00120F5E71348D0219D
:10230000017090214170CCE51F20ABF800004C46D5
:102310004846FEF7F3FF0EA310226E2123200096FD
:10232000FFF7AEFA404600F0B1FB00F0B1F92046ED
:10233000FEF7E4FF0AE600005450204E6565642075
:10234000726561646A7573742100000014000020D6
:10235000546F7563682053637265656E2041646ACB
:10236000757374204F4B210070B506460A480C4621
:1023700002803046FFF73EF8751CA8B22146FFF7F1
:1023800039F8641CA1B23046FFF734F8A1B2A8B204
:10239000BDE87040FFF72EB8100000202DE9F8438B
:1023A000DFF8709004460D30A9F8002082B2A4F145
:1023B0000C000D4680B20B46FEF7CEFF05F10D0076
:1023C00083B2193881B222461046FEF7C5FF6E1C53
:1023D00004F10108B1B21FFA88F0FFF70BF8B1B2AF
:1023E000661EB0B2FFF706F86F1EB9B21FFA88F08A
:1023F000FFF700F8B9B2B0B2FEF7FCFF0020009082
:102400000623B9F800202946204600F067FBBDE806
:10241000F88300001000002070B53520FDF79EFF06
:102420000A2801D0002070BD04212820FDF781FF7B
:1024300000F0AEFE144D294600F0ACFD134C042113
:10244000A0612C20FDF775FF00F0A2FE294600F0E8
:10245000A1FDE06102213020FDF76BFF2084022105
:102460003220FDF766FF60843420FDF777FF90226D
:10247000211F84F82400D02310B10A704B7001E0B2
:102480000B704A70012070BD20BCBE4C18000020AB
:1024900070B586B01F4800240294816941F0100194
:1024A0008161816901F010010491816941F00101AC
:1024B00081618069012500F00100049042F2090069
:1024C000CDE900050320144E039069463046FEF71F
:1024D00073F940F204408DE8310069463046FEF75A
:1024E0006BF90E49881E00F081F8FDF720FFFFF719
:1024F00093FF10B1002006B070BD4FF6FF70FEF7DD
:10250000FDFEFFF787FC00F0C3F8FFF785FF012011
:10251000F1E7000000100240001001402A000020F6
:102520002DE9F0410027174C3E463D46C4F8807126
:10253000C4F88C71C4F8B47104F5C07400F030F9BB
:10254000062000F0B7FA2560012000F0B3FA01215F
:10255000216025604FF6FF70A4F5C07400EA4606BE
:10256000C4F88051C4F88011D4F808210AB1761C4F
:10257000B6B27F1CFFB2102FF0D33009C4F8B411EB
:10258000BDE8F08100002242FEB5064600256C46FB
:102590003046FFF7C5FF24F815006D1CADB2052DC0
:1025A000F6D30020431C99B20CE000BF34F8102091
:1025B00034F81150AA4203D924F8105024F81120FD
:1025C000491C89B20529F1D398B20428EAD3002125
:1025D0005FF0010034F81020401C114480B289B231
:1025E0000428F7D30320B1FBF0F0FEBD2DE9F04144
:1025F000074C06460D462078FFF7C6FF0746607871
:10260000FFF7C2FF378028800120BDE8F08100007D
:10261000140000207FB50C460546694602A8FFF766
:10262000E5FF00282FD001A903A8FFF7DFFF00284E
:1026300029D0BDF80C30BDF80820934203D803F12F
:102640003200824205D39A421FD802F132008342FF
:102650001BD2BDF80410BDF80000814203D801F17F
:102660003206B04204D388420FD8323081420CD2B5
:10267000D01840082880BDF80000BDF804100844B8
:1026800040082080012004B070BD0020FBE700005E
:1026900070B5174C174D2946A06900F0A5FD00F054
:1026A0003BFD014604222820FDF779FE2946E0691A
:1026B00000F09AFD00F030FD014604222C20FDF7C9
:1026C0006EFEB4F9201002223020FDF768FEB4F946
:1026D000221002223220FDF762FE94F824103420EA
:1026E000FDF772FEBDE870400A213520FDF76CBE93
:1026F0001800002020BCBE4C70B502462648D0F819
:102700002801264C30B1207D01063AD520F080000A
:1027100020753DE0214800F11201103012B1FFF7A1
:1027200079FF24E0FFF776FF08B3B4F9200000F04A
:102730002FFD0546208A00F043FDA16900F054FDFD
:10274000294600F0BFFB00F003FD2082B4F922000F
:1027500000F01EFD0546608A00F032FDE16900F0E0
:1027600043FD294600F0AEFB00F0F2FC6082207DC4
:1027700000060DD4C0202075208AA081608AE081E7
:1027800006E00020A081E0814FF6FF702082608289
:10279000207D00F0800070BD000022421800002063
:1027A00030B500210A4A0B460124050602D5C2F8BD
:1027B0008C4101E0C2F88C314006000EC2F8803135
:1027C000C2F88041491CC9B20829EED330BD0000CF
:1027D000000022421CB500252E460195FFF758FE49
:1027E000FEF722FDFFF7D4F85EA0FDF70FFE654C63
:1027F0004FF0010BCDF800B0208863A3183880B2E9
:1028000010220021FFF73CF8DFF880914FF4784068
:102810001223A9F8000000902088A0F11E018AB2BE
:10282000343880B20221FEF7F1FD594FDFF864A180
:10283000FEF730FD8046796800208847387D000625
:1028400050D5388A238898424FD2798A628891423B
:102850004BD2A3F1180290421CDD10291AD241A0DC
:10286000FDF7D4FDCDF800B0208847A3183880B21A
:1028700010220021FFF704F8A9F8006000962088D4
:102880001223A0F11E018AB2343880B20221FEF771
:10289000BDFD2AE0A3F13C0290422ADD1E329042A7
:1028A00027DA142925D201980526B0FBF6F106FB9C
:1028B00011013948343B92B230F81100009098B2BF
:1028C00012230221FEF7A2FD0198B0FBF6F106FBF0
:1028D0001101314830F81160A9F800600198401CDE
:1028E00080B201900A2000F0D1F8B8F1010F05D0B4
:1028F00026E0B9F80020FFF737FDF6E74FF6FF7046
:10290000FEF7FCFCFFF786FAFFF7C2FE15A0FDF705
:102910007DFDCDF800B020881BA3183880B21022AE
:102920000021FEF7ADFFA9F8006000962088122371
:10293000A0F11E018AB2343880B20221FEF766FD92
:102940006D1CADB21E2D7FF473AFDAF8A011002517
:10295000504621B15FF00001C0F8A01168E70121E5
:10296000FAE70000B2E2CAD4393A546F756368B22C
:10297000E2CAD428B0B44B455930BCFCD0A3D7BC74
:102980002920200050000020525354001000002045
:10299000180000200000214240000020FEE7090747
:1029A000090E002804DB00F1E02080F800147047D5
:1029B00000F00F0000F1E02080F8141D70472DE9B1
:1029C000F05F15461C46DDF828B00E46074601EBC1
:1029D000040800EB050A1FFA88F11FFA8AF05A462C
:1029E000FDF7BEFEA7EB05091FFA88F11FFA89F073
:1029F0005A46FDF7B5FEA6EB04081FFA88F11FFA48
:102A00008AF05A46FDF7ACFE1FFA88F11FFA89F0EA
:102A10005A46FDF7A5FE06EB050807EB04091FFA69
:102A200088F11FFA89F05A46FDF79AFE3C1B1FFAFF
:102A300088F1A0B25A46FDF793FE751BA9B21FFAA2
:102A400089F05A46FDF78CFEA9B2A0B25A46BDE8FD
:102A5000F05FFDF785BE000010B50446FEF7D8F81C
:102A60004FF47A71B0FBF1F0FEF78EFA0648E108F8
:102A700001EB41020170C2EBC1114FF6FF7202EA95
:102A8000C101418010BD00004A000020084949886A
:102A900048434FF0E02148610020886101220A612B
:102AA0000A69D30701D0D203FAD50861886170475B
:102AB0004A0000200849097848434FF0E021486166
:102AC0000020886101220A610A69D30701D0D2037C
:102AD000FAD50861886170474A0000202DE9F84F57
:102AE00090461E46894682460024724203200A9977
:102AF00000EB4205C9B930E0274608E03B462246D4
:102B000049465046CDF80080FFF759FF7F1CB74279
:102B1000F4DD002D03DA05EB8405AD1D04E0A01BF8
:102B200005EB80050A35761E641CB442E4DDBDE881
:102B3000F88F3346224649465046CDF80080FFF7CD
:102B40003EFF002D03DA05EB8405AD1D04E0A01B5C
:102B500005EB80050A35761E641CB442E9DDE6E724
:102B6000FDF73EFFFFF77AF8FEF75EFF4820FFF71C
:102B700073FFFEF79BFC00BFFFF72CFEFCE702464D
:102B8000012000E05043491EC9B2FBD270472DE935
:102B9000F04106460F4600F0AFF8041E0D4618BF80
:102BA0000120284320F00040C0F17F6000F1E040A8
:102BB000C00F0ED0301C18BF0120384320F0004059
:102BC000C0F17F6000F1E040C00F04BF0120FDF7BD
:102BD0006BFB20462946BDE8F08100004FEA115307
:102BE000A3F58063D3F11E03A8BFD3F1200C08DB4B
:102BF0004FF0004242EAC12252EA505232FA03F048
:102C0000704709420BD4102BC4BF0020704703F556
:102C1000787CBCF1FF3F05D04FF0FF3070474FF09C
:102C20000000704770B500F019F800BF4992248089
:102C300000207047F0E7B0FA80F310FA03F10AD0F1
:102C4000C3F11D0303F580634FEA41504FEA03527D
:102C500002EBD12170474FF0000070470EF1020ED9
:102C60002EF0030E5EF8046B364205D4012A43EBC6
:102C7000030515F5001F12D8012841EB010C1CF5C6
:102C8000001F0CD80ED14FEAD17C15F5001F0CEBBC
:102C90004C0C0CF1020C08BF4CEBD37C04E04FF061
:102CA000080C01E04FEAD37C0CEB4C0526FA05F644
:102CB00006F00706B6F1040C06D20EEB860CBDE852
:102CC00070404CF0010C6047DFE80CF0090B020289
:102CD0004FF000414FF00000A1F5002170BD1946F2
:102CE0001046012851EB010418BFD4F5001484BF2D
:102CF000002001F0004170BD2DE9F04101F5801C7C
:102D0000BCF5001FC0F2C3804FEA115C21EA0C51F0
:102D10000CF1FD0C41F480115FEA5C0C0CF5C07CF9
:102D200001D3400049413DA4890241EA9051870204
:102D30008E0E0A0CA45D04FB04F602FB06F6C6F137
:102D40004046A4FB0662F60D46EA422606FB06F460
:102D5000A4FB01235242C3F1404338BF5B1EA6FBD4
:102D600002420024E6FB0324D20B42EA4446A6FBBF
:102D70000623A1FB02E2A3FB07E4A4184FF0000224
:102D800052F10002E3FB01426442C2F1404E38BFFF
:102D9000AEF1010EA6FB04234FF00002E6FB0E325B
:102DA000A2FB03464FF00004B61954F10004E2FB05
:102DB0000264A1FB06E6A4FB07E816EB08064FF049
:102DC000000858F10008E4FB01687642C8F1405859
:102DD00038BFA8F10108A2FB06E4A3FB08E52D1902
:102DE0004FF0000454F10004E2FB0854A1FB05E697
:102DF000A7FB04E818EB06084FF0000656F10006A2
:102E0000E1FB048618F1200556F10006A809A8F197
:102E10001B08B10908F03F08B8F10A0F40EA8660C4
:102E20001CD901EB0C51BDE8F08100BFFCF5EEE8C8
:102E3000E2DDD8D3CFCBC7C3C0BDB9B6B4B1AEAC59
:102E4000A9A7A5A3A19F9D9B9A9896959392908FD1
:102E50008D8C8B898887868584838281A0FB00681E
:102E600000FB01F208EB4208B8EB872807D53418BD
:102E700058EB0104D5D5401C51F10001D1E7341ABB
:102E800078EB0104CDD4401E71F10001C9E75FEA7F
:102E90004C0C5FEA9C5C0DD105D34FF0000001F0B3
:102EA0000041BDE8F081BDE8F04170B5FFF7D6FE06
:102EB0006DDBFFBEBDE8F0414FF0000000497047F8
:102EC0000000F87F90EA010F48BF81F0004100F157
:102ED0005E82421A3CBF801A89184FEAD0524FF0E6
:102EE0007F4C1CEA410FA2EBD15318BF9CEA026F42
:102EF00000F03B804FF0004C4CEA00204CEA0121EE
:102F000021FA03FC10EB0C0C1ED202F1FF325FEA37
:102F10001C2040EBC25038BF70471CF07F0F4FEAB7
:102F2000400C18BFBCF17F4F38BF7047C3F120037E
:102F3000994008BF20F00100BCF17F4F38BF7047B7
:102F4000A0F1C04000F017BA4FEA3C00000A40EB85
:102F5000C25028BF1CF0FF0F4FEA400CE6D018BF4C
:102F6000BCF17F4F38BF7047EAE79CEA026F05D09B
:102F700010EA5C0F08BF00F00040704710B500F089
:102F8000B4F900BF64FBBE3E014800F06EBA00BF5A
:102F90000000C07F4FF47F0C1CEAD0121EBF1CEA59
:102FA000D11392EA0C0F93EA0C0F00F0858090EA9F
:102FB000010F48BF42F4807240F4000C41F400005D
:102FC0002CF07F4120F07F4000B58142A2EB03024C
:102FD0000FF2081CACEB504EC0F100009EF800E070
:102FE0004FEA4E0E00FB0EFC38BF49004FEA2C1C86
:102FF00002F5FA020CFB0EF34FEACE1E4FEA112C3B
:103000004FEAC1210EEB635E42EB22420EFB0CFC49
:103010004FEA1C5300FB03114FEA112C4FEA013118
:103020000EFB0CFC4FEADC4C00FB0C11C14228BF2C
:1030300009184CEB03335DF804EB10EB410143EB53
:10304000C250B2F57C0F38BF704729D512F0F00F8F
:103050001CBF00F1C04000F0004070470081828337
:103060008485868788898B8C8D8E8F919293959697
:1030700097999A9C9D9FA0A2A3A5A7A8AAACAEB021
:10308000B2B3B5B7B9BCBEC0C2C5C7C9CCCED1D426
:10309000D7D9DCDFE2E6E9ECF0F3F7FAFE00000056
:1030A0004FEA400C0CF1807CBCF17E4F28BF70478A
:1030B000B0F1C04000F05FB990EA010F0CEAD11303
:1030C00048BF42F48072624538BF634507D213F4AB
:1030D0007F0F16D080EA010000F00040704710B565
:1030E00000F003F9097EFC3E00F005B880EA01001B
:1030F00000F00040704780EA010000F0004000F05E
:103100003AB912F47F0F04BF0248704780EA010009
:1031100000F031B90000C07F41000B0ED3F19E02D8
:1031200008D950F400034FEA032323FA02F048BF02
:103130004042704710B500F0D8F800BF4992248093
:10314000002070476FF0004282EA200070470000C4
:10315000C10DD1F19E0206DB4FEA002343F000438C
:1031600023FA02F07047004207D54FEA4001B1F15F
:10317000FE4F02D24FF00000704710B500F0B5F8D6
:1031800049922480002070476FEA200070470000B9
:1031900010F0004148BF4042B0FA80F310FA03F249
:1031A000C3F19D030BD051EAC35101EB122053062A
:1031B00038BF704700F1010008BF20F001007047E0
:1031C000B0FA80F310FA03F2C3F19D030AD0D905D7
:1031D00001EB1220530638BF704700F1010008BF11
:1031E00020F00100704700004FF47F0C1CEAD01261
:1031F0001EBF1CEAD11392EA0C0F93EA0C0F00F0E9
:10320000478090EA010F48BF42F480724FF0004CB3
:103210004CEA00204CEA012102EB0302A0FB01135F
:10322000A2F50002002918BF43F001035B0028BF8C
:103230004FEA330342EB22425FEA132C4CEBC250BD
:103240002EBFBCEB436FB2F57C0F70474FEA036CA7
:10325000BCF1004F08BF20F00100B2F57C0F38BF71
:1032600070470BD582F0FF0212F5803FC8BF704750
:1032700000F1C040D8BF00F00040704700F5000CDE
:103280005FEA4C0C48BF7047B0F1C04000F073B823
:1032900090EA010F0CEAD11348BF42F480726245F4
:1032A00038BF634504D280EA010000F00040704757
:1032B00010B500F01AF800BF8900013E00F007B811
:1032C00000F009B85FEA410C5FEA1C6C08D080EAA4
:1032D000010000F050B85FEA400C5FEA1C6CF6D1C8
:1032E0004FF00040A0F5800070470EF1020E2EF066
:1032F000030E5EF8044B244204D44FEA4102B2F1BB
:103300007F4F11D84FEA4003B3F17F4F0CD80ED155
:103310004FEAD07CB2F17F4F0CEB4C0C0CF1020C5D
:1033200008BF4CEBD17C04E04FF0080C01E04FEA01
:10333000D17C0CEB4C0324FA03F404F00704B4F141
:10334000040C06D20EEB840CBDE810404CF0010CCE
:103350006047DFE80CF0070802024FF00040A0F5DC
:10336000800010BD0846420018BFD2F1807288BFAD
:1033700000F0004010BDFF2141EAD050C005704769
:1033800090EA010F48BF81F000413FF5A2AD421A1B
:1033900004D882F00042A0EB020011444FEAD05260
:1033A0004FF07F4C1CEA410FA2EBD15318BF9CEAAF
:1033B000026F4AD04FF0004C4CEA00204CEA012149
:1033C00021FA03FCB0EB0C0C0FD412F0FE0F36D038
:1033D0005FEA4C001DD5001240EBC25038BF704769
:1033E0001CF03F0F18BF70470BE0A2F101025FEA2B
:1033F0001C2040EBC25038BF70471CF07F0F18BF35
:103400007047C3F12003994014BF401E20F0010013
:10341000704780084FEA122308BF7047B0FA80FC5B
:10342000A2EB0C02CCF1280C60FA0CF093EA122FFC
:1034300004BF00EBC25070474FEAC3707047130AD5
:103440005FEADC1008BF7047F6E79CEA026F04D021
:1034500010EA5C0F08BF0020704710B5FFF745FF6A
:1034600040DFF63E81F0004070470CF00F03092B5F
:1034700008BF082000F051800A2B0BD0082B18BF82
:10348000704708BF1CF0400F0AD04FF000004FF00B
:10349000000170471CF0400F18BF4FF0004070470C
:1034A0001CF0100F08D020F0704300F07F4242EA79
:1034B000D3014FEA4370704700F0604021F07F4233
:1034C00042EA000201F07F4040EA727070474FF01C
:1034D000FF0212EAD0521CBF92F0FF038B42C2BF20
:1034E000D14200EBC1507047002A0AD0002B0BD00C
:1034F000002900F00040A4BF40F0FE4040F400006E
:10350000704700F00040704743024FF00B0C18BFAB
:103510004CF0806C7FF438AD70471CF4801F11D0E4
:103520001CF4E02F03D06FEACC31490070474FF014
:103530004050EFF3008222F0704242EA000282F330
:10354000008870474FF00000704701020203040535
:10355000060708090A0B0C0D0E0F101000000000E2
:103560000000000001020304060708090000000033
:103570000000000000000000000004040404040433
:103580000004000000140A0A00000000000000000F
:10359000000014143F140A3F0A0A000000041E151C
:1035A00005060C14150F0400000012150D0A142C4A
:1035B0002A1200000000040A0A1E15150936000030
:1035C00000020201000000000000000000201008BE
:1035D0000808080808102000000204080808080865
:1035E0000804020000000004150E0E15040000007F
:1035F00000000404041F0404040000000000000094
:10360000000000000002020100000000001F000096
:1036100000000000000000000000000000020000A8
:1036200000100808080404020202010000000E1144
:1036300011111111110E000000000406040404040D
:10364000040E000000000E1111080402011F00000A
:1036500000000E11100C1010110E00000000080CDC
:103660000A0A091E0818000000001F01010F1010AF
:10367000110E000000000E09010F1111110E0000C3
:1036800000001F09080404040404000000000E11D7
:10369000110E1111110E000000000E1111111E105B
:1036A000120E0000000000000400000000040000F2
:1036B00000000000000400000004040000201008C6
:1036C0000402040810200000000000001F00001F7A
:1036D000000000000002040810201008040200008E
:1036E00000000E11110804040004000000000E1177
:1036F0001915151D011E0000000004040C0A0A1E05
:103700001233000000000F12120E1212120F0000EE
:1037100000001E1101010101110E000000000F1236
:1037200012121212120F000000001F120A0E0A02DB
:10373000121F000000001F120A0E0A0202070000FA
:1037400000001C1201013911120C0000000033129C
:10375000121E12121233000000001F04040404049D
:10376000041F000000003E080808080808090700B8
:10377000000037120A060A0A12370000000007028A
:1037800002020202223F000000001B1B1B1B15153A
:103790001515000000003B1216161A1A1217000029
:1037A00000000E1111111111110E000000000F1276
:1037B000120E02020207000000000E111111111773
:1037C000190E180000000F12120E0A121237000014
:1037D00000001E1101060810110F000000001F1547
:1037E00004040404040E000000003312121212122A
:1037F000120C000000003312120A0A0C040400002C
:1038000000001515150E0A0A0A0A000000001B0A1E
:103810000A04040A0A1B000000001B0A0A0404042C
:10382000040E000000001F0908040402121F00001B
:10383000001C04040404040404041C00000202022A
:103840000404080808100000000E0808080808080A
:1038500008080E0000040A0000000000000000003C
:1038600000000000000000000000003F0004000015
:10387000000000000000000000000000000C121C0E
:10388000123C000000000302020E1212120E000091
:1038900000000000001C1202021C000000001810B2
:1038A000101C1212123C000000000000000C121E3E
:1038B000021C000000003804041E0404041E000062
:1038C00000000000003C120C021E221C000003023B
:1038D000020E121212370000000004000006040459
:1038E000040E000000000800000C08080808080783
:1038F00000000302023A0A0E12370000000007041B
:1039000004040404041F000000000000000F15154B
:103910001515000000000000000F12121237000001
:1039200000000000000C1212120C00000000000049
:10393000000F1212120E020700000000001C1212EB
:10394000121C103800000000001B060202070000D5
:1039500000000000001E020C101E00000000000409
:10396000040E04040418000000000000001B1212E2
:10397000123C0000000000000037120A0C04000096
:10398000000000000015150E0A0A000000000000EB
:10399000001B0A040A1B0000000000000037120A86
:1039A0000C04040300000000001E0804041E0000B4
:1039B000001808080804080808081800080808087B
:1039C0000808080808080808000604040408040495
:1039D000040406000225180000000000000000009A
:1039E00000000000000000000000000000000000D7
:1039F000000000080808080808080000181800005F
:103A000000486C24120000000000000000000000CC
:103A10000000002424247F1212127F1212120000D0
:103A20000000081C2A2A0A0C1828282A2A1C080820
:103A300000000022251515152A5854545422000060
:103A40000000000C1212120A76252911916E000056
:103A50000006060403000000000000000000000053
:103A60000040201010080808080808101020400026
:103A700000020408081010101010100808040200BA
:103A80000000000008086B1C1C6B08080000000008
:103A900000000000080808087F0808080800000067
:103AA0000000000000000000000000000606040303
:103AB0000000000000000000FE0000000000000008
:103AC00000000000000000000000000006060000EA
:103AD000000080404020201010080804040202006A
:103AE0000000001824424242424242422418000090
:103AF000000000080E08080808080808083E000032
:103B00000000003C4242422020100804427E000097
:103B10000000003C4242201820404042221C00008D
:103B2000000000203028242422227E20207800005B
:103B30000000007E0202021A26404042221C0000C1
:103B4000000000382402021A2642424224180000D3
:103B50000000007E22221010080808080808000053
:103B60000000003C4242422418244242423C0000F1
:103B7000000000182442424264584040241C0000C7
:103B800000000000000018180000000018180000D5
:103B90000000000000000008000000000008080409
:103BA000000000402010080402040810204000001B
:103BB0000000000000007F0000007F000000000007
:103BC0000000000204081020402010080402000039
:103BD0000000003C4242464020101000181800002F
:103BE0000000001C225A555555552D42221C00003C
:103BF0000000000808181414243C224242E7000088
:103C00000000001F2222221E22424242221F0000E8
:103C10000000007C4242010101010142221C00001F
:103C20000000001F2242424242424242221F000044
:103C30000000003F4212121E12120242423F0000D8
:103C40000000003F4212121E121202020207000080
:103C50000000003C2222010101712122221C0000EF
:103C6000000000E7424242427E42424242E70000F8
:103C70000000003E0808080808080808083E000080
:103C80000000007C10101010101010101010110FF8
:103C90000000007722120A0E0A1212222277000078
:103CA000000000070202020202020202427F00003C
:103CB00000000077363636362A2A2A2A2A6B000078
:103CC000000000E346464A4A5252526262470000F0
:103CD0000000001C2241414141414141221C0000A1
:103CE0000000003F424242423E0202020207000040
:103CF0000000001C2241414141414D53321C6000F3
:103D00000000003F4242423E1212222242C70000FF
:103D10000000007C4242020418204042423E000063
:103D20000000007F4908080808080808081C00006F
:103D3000000000E74242424242424242423C00000E
:103D4000000000E74242222424141418080800004E
:103D50000000006B4949494955553622222200008E
:103D6000000000E7422424181818242442E7000029
:103D7000000000772222141408080808081C00001C
:103D80000000007E2120101008040442423F000081
:103D900000780808080808080808080808087800D3
:103DA00000000202040408080810102020204040EF
:103DB000001E1010101010101010101010101E0007
:103DC0000038440000000000000000000000000077
:103DD000000000000000000000000000000000FFE4
:103DE00000060800000000000000000000000000C5
:103DF000000000000000003C4278444242FC000009
:103E0000000000030202021A26424242261A000063
:103E100000000000000000384402020244380000A4
:103E200000000060404040784442424264D80000B4
:103E3000000000000000003C427E0202423C000004
:103E4000000000F08808087E08080808083E000006
:103E5000000000000000007C22221C023C42423C88
:103E6000000000030202023A4642424242E70000DA
:103E70000000000C0C00000E08080808083E0000B6
:103E80000000003030000038202020202020221E9A
:103E90000000000302020272120A161222770000CA
:103EA0000000000E0808080808080808083E00007E
:103EB000000000000000007F9292929292B70000F2
:103EC000000000000000003B4642424242E7000082
:103ED000000000000000003C42424242423C000020
:103EE000000000000000001B26424242221E020782
:103EF000000000000000007844424242447840E064
:103F000000000000000000774C040404041F0000BF
:103F1000000000000000007C42023C40423E0000E5
:103F2000000000000008083E0808080808300000EB
:103F300000000000000000634242424262DC0000D8
:103F400000000000000000E74224241408080000DC
:103F500000000000000000EB4949555522220000F6
:103F6000000000000000007624181818246E0000DD
:103F700000000000000000E742242414180808078D
:103F8000000000000000007E22100808447E0000AF
:103F900000C0202020202010202020202020C00031
:103FA0001010101010101010101010101010101011
:103FB000000608080808081008080808080806008D
:103FC0000C32C200000000000000000000000000F1
:103FD000C9EE000027FC140414A4811042084040DC
:103FE000104017FC2040E0E0215022482C462040A1
:103FF0000040DBDA11041124112411241124FD24C2
:10400000112411241124112411241D24E1244224FB
:1040100002040404CAD00200010000007FFC010079
:10402000010001003FF8210821082108210821286A
:10403000211001000100C8AB000000000180024017
:104040000430180860061FF90100010001003FF864
:104050000100010001007FFEB6AF0000000000205B
:104060003E20007C002200227F22102210221222F9
:104070001222224223423D82009CB5E7000001004B
:1040800001001FF0610C410441047FFC4104410424
:1040900041047FFC01000102010201FCD7D30000B2
:1040A00000003FF8001000600080010000807FFEEB
:1040B0000040004000200020002018400780BCBCC9
:1040C00010201020102013FEFC201020102015FCC2
:1040D00018843088D048105010201050518826067F
:1040E000CAF501000120011001107FFC038005408A
:1040F000054009201110210841048102010001003E
:104100000100D3D002000200FFFE040004000FF003
:10411000081018102FF0481088100FF00810081021
:1041200008500820CFDE00007BF84A08520853F8F8
:10413000620852084BF84A444A486A3052204210FA
:10414000428843064200B9AB0080048004800840E6
:104150000840102020104208820604000440082075
:1041600010203FF010100000CBBE00003FF8000808
:1041700000087FE8000800081F8810881088108851
:1041800010881F88108800280010BBB600800080AF
:10419000FC8004FC050449082A401440104028A073
:1041A00024A045108110020804040802D3AD0000C9
:1041B0002080133C122402240224F224122412240C
:1041C00012B4132812201020282047FE0000C4FA41
:1041D0000900090011FC3204544899501148124456
:1041E00014441140108002005104511290120FF03B
:1041F000B4BF00000020102013FE202026244A24F3
:104200007A241224222423FC7C20002204227822F7
:10421000003CC9AB0000000004000FF0102020207B
:104220007FFC20842084208420843FF8200020020A
:1042300020021FFECCEE00000000204023FE2040A4
:1042400079FC220423FC220423FC220423FC3A04EC
:1042500065FA01980204B3E40000010001007FFE4A
:1042600002200410040808043FFC044204400440F7
:10427000044208421042607EBED800000000207E4A
:104280003E804880488048FE48827F8208820C82B7
:1042900014FA12842280218040FED0CE000000005B
:1042A0007F842208223022C0220222047FC82230CA
:1042B00022C222022204220822304040BBAD00006C
:1042C00000007FFE00000FF01110111011105112AC
:1042D0005FF25112511251124FF240027FFCD4B2E0
:1042E000000000007FFE47E24812481247E24FF20A
:1042F000501250125112511242924472580A3FFC0D
:10430000CDBC000000003FFE440247F24C22536245
:10431000408243625E1A41824062430240C24022B0
:104320003FFCC6AC000000402040204020403FFE43
:104330002000200020003FE020102010201020103E
:1043400040104010CFD4000000003FFC20042004A7
:104350003FFC200420041FF8244414481448144847
:104360000C5004407FFECABE000000003FFC00006D
:10437000000000007FFE00800890088810881084EC
:104380002084208240820780B2CB000000200820D9
:104390007FFE002000783F881108089009207FFEEA
:1043A000018003400D30310C4002B5A50000001023
:1043B000081004203FF8210421043FFC21042104BB
:1043C0003FF801007FFE010001000100D6D000008F
:1043D0000100010001003FFC21042104210421040B
:1043E000210421043FFC0100010001000100D3A2CF
:1043F0000000000008207FFE0820092001003FF88F
:104400002108210821081FF4014002200C10700E21
:10441000CEC400000100010000803F7C081008109D
:1044200004100420022002400180018002601C1858
:10443000E006D7DB00000000102011FE220222025D
:1044400049FC5800300013FE2528792401240D244E
:10445000722202A2BACF00000000018002400430A4
:10446000180860061FF800001FF82004200420042C
:10447000200420041FF8C1C10000010001007FFEDC
:1044800000003FF820083FF83FF8400647C24824A4
:10449000082008221022603EB6C8000000000080FC
:1044A0003FFE44105FFC4410441043F040005FF8AE
:1044B0004408423041C04360BC1EB2E2000000002C
:1044C00067C2145205520552C55225520552055273
:1044D00015521752228222424442483ECAD400005A
:1044E00000002014101417FE00120010601013F0CA
:1044F000109010901090149214EA1F0A0006B3CC8A
:104500000000000019FE7202120212027DFC180067
:104510001BFE3420502053FE10201020102013FECC
:10452000D0F20000000000803FFE400047FC42083F
:10453000413040C05FFE404240424044404840401D
:104540004440B5F70000000023FE122202FA0222C6
:10455000E22212FE1272128A128A128A16BA1A42C3
:104560001202040EB9E2000001000104110809085A
:10457000091009207FFE0440044004400440084222
:1045800008421042607CB0E60000000048FE49008E
:10459000490049007EFE418241447944452845282E
:1045A0004510452846440382C8A8000010001000AA
:1045B00013FC7D04110419041884348850485050A9
:1045C00010201050108813041402CBF900000000D2
:1045D0003F7C204020403E40227E22442244224410
:1045E0003E8420842084408441044204C6C10000EB
:1045F0003FF8200820083FF8241022202FF822201E
:1046000022203FFC22204220442084200820C4BBDA
:1046100004407FFC04401FF010101FF010101FF02A
:104620000400FFFE11103FF8D116115011200100B7
:10463000D0FD2080108010FE0100FE0021FC20240F
:104640003C2424A024A024BC24A024A04560553EE2
:104650008A00D7AA202020202020FDFC40205040A6
:1046600093FEFC40108011FC1C04F0885050102078
:1046700010101010BFAA00007FFC0820082008209E
:1046800008200820FFFE082008200820082010200D
:10469000102020204020D4B4000027FE1420144015
:1046A00085FC450445FC150415FC2524E42024A8BC
:1046B00029242A2230A00040D2BA0080204017FED0
:1046C00011208120423C4244166412942348E2485F
:1046D00022302220225022880306BEA70FE00820A5
:1046E00008200FE0082008200FE000007EFC428434
:1046F00042847EFC428442847EFC4284CDF80000E9
:104700007FFC40044004421452944A5444244424FC
:104710004A544A5452946104400440144008D5BE9F
:104720001020082008207E20003E04204420442041
:1047300025FC290429040F04F104410401FC0104AF
:10474000B0B410401020102013FEFA0214441040A0
:104750001BFE3088D088110810D0102010505088CF
:104760002304BCFC201020103B7C211441FE7A1451
:10477000A27C2710F97C251025FE22102A10350076
:1047800028FE0000D0A310401020102011FEFC00D5
:10479000108831043A0254885088905010501020EC
:1047A000105010881306D7BC01404120212023FE61
:1047B000022016201BFC1220222023FCE2202220B3
:1047C000222023FE22000200B4A5202020207820F1
:1047D00049FC91247D24552455247DFC55245420E6
:1047E0007C28542457FE45028C00C3FE1110111082
:1047F00017FC1110FC0013F8120817F81A0833F808
:10480000D04017FC10A0111052082406C9EE000079
:10481000000000001000000800080C7FFC0440109D
:1048200001C8A002186042301832231812C30014C5
:10483000030004030C047FF0080F80080B4078137A
:104840006018332018631818831C19030818030014
:10485000000300000000DBDA00000000000004108C
:104860000C04180C04108C04108C04108C04108C94
:1048700004D08C3F108C04108C04108C04108C0419
:10488000108C04108C04108C05F08C0E208C782079
:104890008C20408C00808C01000C02000C00000079
:1048A000CAD000000000000000300000180000180E
:1048B0000800001C1FFFE000180000182007FFF090
:1048C00004182004182004182004182004182004B8
:1048D00018200418200418200418200418E00418D4
:1048E00040001800001800000000D6D000000000B2
:1048F0000000000000000000001800001800001870
:10490000000018003FFFFE30180630180630180669
:104910003018063018063FFFFE3018060018000059
:104920001800001800001800001800000000000027
:1049300000000000CEC400000000000000000000E5
:104940003800001C00000600FFFFFF0600300600D4
:10495000300300600300600180C000C18000E300FC
:10496000003600001C0000770003C1E01E003C6020
:104970000007000000000000000000000000B2E29C
:1049800000000000000000000000000040000321C3
:10499000FF33398333118333019B33C19B33719BC5
:1049A00033199B33019B33019B33119B3319B33371
:1049B000303033306C0330C6036383032E01BE00F6
:1049C0000000000000000000CAD400000000000049
:1049D0000000000000004000D83000CE1800C21CCB
:1049E00000C001FFFF0000C0F800C01800C019FFA0
:1049F000C01818401818601918601B18611E18316B
:104A00001C1FB139F01910000F0000000000000059
:104A10000000D7D6000000000006000000030000E0
:104A20000000C0000001C0C0000107C00001FF007D
:104A3000021FFE0007F01C0007C070000F00E0001E
:104A40000E03F0001C0FF0003C0F70003C00E00073
:104A50001800C0000000C0000000C000000060009E
:104A600000002000000037000001FF00007FF80078
:104A700007F830001F8030000080300000C0300098
:104A8000006060000018E000000FC0000006000099
:104A900000000000CCE50000000000000000000065
:104AA00000C0000000E0002001B800703FF8006185
:104AB000FFC000C3030001C60600038C0600030804
:104AC0000C0006080C000E18183F1E101BF31F9058
:104AD0003F0700803C1C0190707C019060FE01A0AB
:104AE000C3F801A00FD803A0081803600018034002
:104AF000001803C00018038000180300001800000D
:104B0000001800000010000000300000003000001D
:104B1000000000000000B2E2000000000000000001
:104B20000000000000000000020C1008071FF8043D
:104B300003BFF00201BC300303EC3003015C6003EF
:104B400000D8600300D860038098620361B843070F
:104B500071B14306313243063376C3063A64C70661
:104B60003EECC0063E78C0063C3040067C70000635
:104B700078E060067BFFF006F7C00006E400000660
:104B800040000006000000060000007C00008FF0DE
:104B900000007C0000000000CAD4000000000000FB
:104BA00000000000000000003F0000007F800000C7
:104BB0000180000000C0000000C0000000CE0380A3
:104BC00000CFFFC000DD41800FFE0007FFFC000C9E
:104BD00000F000180FC03E19FF40F311BC60833095
:104BE0007FE003B1FE2003338020037000300360B8
:104BF00000100360001807C0000C07C00004078005
:104C0000000201000003000000010000000000009D
:104C10000000000000000000000000003C4C000804
:104C200000000020500000006C0100088C4C0008BF
:104C300050000020700600008801000801000000FC
:104C4000100000000000000000127A000000FFFFCA
:104C5000D090000091240008F9260008151E0008D5
:104C60000000000000000000000000000000000044
:104C700000000000000000000000000000F8E00755
:0C4C80001F00E0FF1FF800000000000013
:0400000508000131BD
:00000001FF
